:020000040800F2
:10000000200A0020590400085D0200085F02000871
:1000100063020008670200086B020008000000008D
:100020000000000000000000000000006F02000857
:100030007102000800000000730200087502000849
:1000400073040008730400087304000873040008B4
:1000500073040008730400087304000873040008A4
:100060007304000873040008730400087304000894
:100070007304000873040008730400087304000884
:100080007304000873040008730400087304000874
:100090007304000873040008730400087304000864
:1000A0007304000873040008730400087304000854
:1000B000ED290008CD320008F93200087304000869
:1000C0007304000873040008730400087304000834
:1000D000730400089524000873040008E930000840
:1000E0007304000873040008730400087304000814
:1000F0007304000873040008730400087304000804
:100100007304000873040008253300087304000812
:1001100073040008730400087304000873040008E3
:1001200073040008730400087304000873040008D3
:1001300000F002F800F048F80AA090E8000C8244B1
:100140008344AAF10107DA4501D100F03DF8AFF28E
:10015000090EBAE80F0013F0010F18BFFB1A43F0A5
:10016000010318473843000058430000103A24BFE9
:1001700078C878C1FAD8520724BF30C830C144BF0C
:1001800004680C607047000000230024002500264E
:10019000103A28BF78C1FBD8520728BF30C148BFEA
:1001A0000B607047642903F0F184002070471FB58D
:1001B00003F08CFE04000020002103F021FF401C0E
:1001C00060601FBD10B510BD03F0AEFE1146FFF715
:1001D000EEFF00F009F803F0CCFE03B4FFF7F2FFE6
:1001E00003BC02F0F1F8000000BF00BF00BF00BF79
:1001F00000BF00BF00201549086002F075F802F04A
:10020000DDF802F0A7FB02F00DFE4FF4165002F0ED
:10021000F5F84FF4165002F013FE02F073FB03F0F2
:1002200033FC00200A4908600A4908600A4908604E
:1002300000BF09E002F053FE4FF47A7002F091F82B
:100240004FF47A7002F08DF8F4E70000BC00002053
:10025000A0000020A4000020A8000020704700BFDC
:10026000FEE700BFFEE700BFFEE700BFFEE7704706
:1002700070477047704700000CB500200190009057
:100280006C48006840F480306A49086000BF6948E3
:10029000006800F4003000900198401C0190009824
:1002A00018B90198B0F5A06FF1D16248006800F468
:1002B000003010B10120009001E000200090009873
:1002C000012843D15C48006840F010005A4908609A
:1002D0000846006820F0030008600846006840F007
:1002E0000200086053484068524948600846406828
:1002F00048600846406840F48060486008464068AE
:1003000020F47C1048600846406840F4E8104860DB
:100310000846006840F08070086000BF45480068EB
:1003200000F000700028F9D04248406820F0030037
:10033000404948600846406840F00200486000BFFD
:100340003C48406800F00C000828F9D10CBD10B5FD
:10035000FFF792FF10BD10B53648006840F001006D
:1003600034490860084640683449084031494860CB
:1003700008460068324908402E490860084600686F
:1003800020F4802008600846406820F4FE004860A1
:100390004FF41F008860FFF7DAFF4FF00060294933
:1003A000086010BD10B5002100200022214B5B68C1
:1003B00003F00C0121B1042906D0082928D107E057
:1003C000214B224C236027E01F4B204C236023E06D
:1003D000184B5B6803F47010164B5B6803F48032B3
:1003E000022303EB904022B9194B4343174C23607F
:1003F0000DE0104B5B6803F4003323B1144B43430F
:10040000124C236003E0104B4343104C236003E085
:100410000D4B0E4C236000BF00BF064B5B68C3F35F
:1004200003130C4CE15C094B1B68CB40074C236069
:1004300010BD000000100240002002400000FFF844
:10044000FFFFF6FE08ED00E000127A000000002039
:1004500000093D0004000020094880470948004782
:10046000FEE7FEE7FEE7FEE7FEE7FEE7FEE7FEE764
:10047000FEE7FEE704480549054A064B70470000C1
:10048000570300083101000820040020200A002042
:10049000200600202006002031490143314A116026
:1004A000704770B5002100230F22C47804B32D4C8F
:1004B000246804F4E064C4F5E064210AC1F1040393
:1004C000CA40447804FA03F18478144021430901B6
:1004D000254C0678A155047804F01F050124AC4092
:1004E00005786D11AD0005F1E025C5F8004109E082
:1004F000047804F01F050124AC401C4D06787611E9
:1005000045F8264070BD1A4A0A400243154B1B1F8E
:100510001A60704739B1134A121D12680243114B19
:100520001B1D1A6006E00F4A121D126882430D4B14
:100530001B1D1A607047042808D14FF0E02109699B
:1005400041F004014FF0E022116107E04FF0E0219B
:10055000096921F004014FF0E022116170470000A9
:100560000000FA050CED00E000E400E080E100E0AE
:1005700080FFFF1F10B50446FA48844208D10121CC
:10058000401500F055FD0021601500F051FD17E009
:10059000F548844208D10121001500F049FD0021F1
:1005A000201500F045FD0BE0F048844208D1012100
:1005B000C80300F03DFD00214FF4004000F038FD7D
:1005C00010BD30B50246002000235068E84C2040A2
:1005D0000D790C6844EA0524204350609068E54C8E
:1005E0002040D1E902542C434D7944EA450420438C
:1005F0009060D06A20F470000C7C641EE4B2234347
:1006000040EA0350D06230BD0021016001714171A8
:100610008160C16001210174704721B1826842F09C
:100620000102826003E0826822F00102826070476A
:1006300021B1826842F48072826003E0826822F411
:1006400080728260704710B50023CBB21AB1446843
:100650001C43446002E044689C43446010BD8168D0
:1006600041F0080181607047014600208A6802F06D
:1006700008020AB1012000E000207047816841F0C3
:10068000040181607047014600208A6802F004027C
:100690000AB1012000E00020704721B1826842F4D5
:1006A000A002826003E0826822F4A00282607047A8
:1006B000014600208A6802F480020AB1012000E0AD
:1006C0000020704710B50A4600210023416821F43C
:1006D0006041531E41EA4331416010BD21B142687F
:1006E00042F40062426003E0426822F40062426029
:1006F0007047F0B504460D4600200021092D11DD9C
:10070000E068A5F10A0606EB4607072606FA07F198
:100710008843A5F10A0606EB460603FA06F10843EC
:10072000E0600CE0206905EB4507072606FA07F1B3
:10073000884305EB450603FA06F108432061072AC2
:100740000FDA606B561E06EB86071F2606FA07F1C6
:100750008843561E06EB860605FA06F108436063D9
:1007600022E00D2A0FDA206BD61F06EB86071F2624
:1007700006FA07F18843D61F06EB860605FA06F14E
:100780000843206310E0E06AA2F10D0606EB86073D
:100790001F2606FA07F18843A2F10D0606EB86062E
:1007A00005FA06F10843E062F0BD21B1826842F427
:1007B0008012826003E0826822F4801282607047B7
:1007C0000146C86C80B2704766484C30006870477C
:1007D00021B1426842F48062426003E0426822F440
:1007E00080624260704721B1426842F480524260A8
:1007F00003E0426822F48052426070470A460021BA
:10080000816821F4E04111438160704721B1826821
:1008100042F40042826003E0826822F40042826077
:10082000704721B1826842F40212826003E082685C
:1008300022F4021282607047014600208A6802F4A6
:1008400000120AB1012000E000207047F0B5044614
:100850001546002000220026092911DDE068A1F1DB
:100860000A0707EB470C072707FA0CF29043A1F1A0
:100870000A0707EB470703FA07F21043E0600CE0B2
:10088000206901EB410C072707FA0CF2904301EBBA
:10089000410703FA07F210432061A06BC0F3015631
:1008A000EF1C06F1010CA7EB0C0707EB870C1F27C9
:1008B00007FA0CF29043EF1C06F1010CA7EB0C07B2
:1008C00007EB870701FA07F21043A063F0BD10B5EC
:1008D0000A4600210023816B21F44011531E41EA96
:1008E0000351816310BD08B5002300930090009B65
:1008F0000B440093009B1A6008BD08B50246002017
:100900000090009201F12800009B1844009000988C
:10091000006880B208BD0A4600214168164B1940A4
:100920001143416070474162826270470A4600216C
:10093000416821F01F0111434160704740B10949EE
:100940000831096841F40001064A0832116007E0E5
:1009500004490831096821F40001024A0832116093
:10096000704700000024014000280140003C014085
:10097000FFFEF0FFFDF7F1FFFFFD3FFF0246002005
:1009800013680B400BB1012000E000207047CA4300
:100990000260704770B502460020002300240B124D
:1009A0005568CEB205EA060415681D4015B10CB1B4
:1009B000012000E0002070BD00220A12D343036032
:1009C0007047000010B50446CC48844208D101218C
:1009D000042000F02DFB0021042000F029FB46E05C
:1009E000C748844208D10121082000F021FB0021E2
:1009F000082000F01DFB3AE0C248844208D10121E2
:100A0000102000F015FB0021102000F011FB2EE05B
:100A1000BD48844208D10121202000F009FB0021BB
:100A2000202000F005FB22E0B848844208D10121D3
:100A3000402000F0FDFA0021402000F0F9FA16E015
:100A4000B348844208D10121802000F0F1FA00214E
:100A5000802000F0EDFA0AE0AE48844207D101217F
:100A6000801500F0E5FA0021A01500F0E1FA10BDB4
:100A700010B50121084600F0DBFA0021012000F04A
:100A8000D7FA10BD2DE9F0410246002500260020CE
:100A900000230024002791F803C00CF00F0591F803
:100AA00003C00CF0100CBCF1000F03D091F802C091
:100AB0004CEA050591F800C0BCF1000F31D0146874
:100AC00000202BE04FF0010C0CFA00F3B1F800C04D
:100AD0000CEA03069E4220D183004FF00F0C0CFA63
:100AE00003F7BC4305FA03FC4CEA040491F803C085
:100AF000BCF1280F06D14FF0010C0CFA00FCC2F833
:100B000014C00AE091F803C0BCF1480F05D14FF0C2
:100B1000010C0CFA00FCC2F810C0401C0828D1D30C
:100B20001460B1F800C0BCF1FF0F34DD5468002040
:100B30002EE000F1080C4FF0010808FA0CF3B1F8B0
:100B400000C00CEA03069E4221D183004FF00F0C37
:100B50000CFA03F7BC4305FA03FC4CEA040491F8D1
:100B600003C0BCF1280F05D100F1080C08FA0CF8FD
:100B7000C2F8148091F803C0BCF1480F07D100F10E
:100B8000080C4FF0010808FA0CF8C2F81080401C5D
:100B90000828CED35460BDE8F0814FF6FF71018084
:100BA000022181700421C1707047024600209368C1
:100BB0000B400BB1012000E000207047014688681F
:100BC00080B2704702460020D3680B400BB1012071
:100BD00000E0002070470146C86880B2704701619C
:100BE0007047416170470AB1016100E0416170479F
:100BF000C16070474FF480320A4382618161826133
:100C000082698269704702460020434B18684FF69C
:100C10008073184040EA021008433F4B1860704749
:100C20003E49C8617047F0B50A4600230024002100
:100C3000002500F00046B6F1004F02D1364EF169B2
:100C400001E0354E7168C0F3034583B200F44016ED
:100C5000B6F5401F08D121F070612F4E766826F05E
:100C600070662D4F7E6012E000F48016B6F5801F8E
:100C700006D1032606FA05F4A14341F0706106E0AF
:100C8000460D360103FA06F6B14341F0706122B118
:100C9000460D360103FA06F6314300F00046B6F180
:100CA000004F02D11C4EF16101E01B4E7160F0BD9E
:100CB00030B500228B071C0F0F2303FA04F2164BEA
:100CC00008338C1053F824309343134C08348D10A0
:100CD00044F8253023468C1053F824308C07240F19
:100CE00000FA04F423430C4C08348D1044F82530EA
:100CF00030BD0A49DC31086070470000000801403F
:100D0000000C014000100140001401400018014097
:100D1000001C014000200140000001400000204272
:100D2000DF48006840F00100DD490860084640687F
:100D3000DC490840DA49486008460068DA4908405A
:100D4000D74908600846006820F4802008600846FB
:100D5000406820F4FE0048604FF41F008860704730
:100D6000CF49096821F48031CD4A116011460968E4
:100D700021F480211160B0F5803F03D0B0F5802FC1
:100D80000ED106E0C649096841F48031C44A1160B9
:100D900007E0C349096841F4A021C14A116000E09D
:100DA00000BF00BF704710B501460022002300209D
:100DB0004A11012A02D1BA4C236806E0022A02D164
:100DC000B74C236A01E0B64C636A01F01F020124AC
:100DD00094401C400CB1012000E0002010BD38B54B
:100DE000002000900024002500BF3120FFF7DBFF2A
:100DF00005460098401C00900098B0F5A06F01D007
:100E0000002DF2D03120FFF7CEFF08B1012400E021
:100E10000024204638BD01460020A14A106820F079
:100E2000F80040EAC10010607047A04908607047B0
:100E3000024600209A4B586820F47C1042EA0103D5
:100E40001843974B586070479849086670470146A9
:100E50000020934A506820F0030008435060704718
:100E60008F48406800F00C007047014600208C4A13
:100E7000506820F0F00008435060704701460020A1
:100E8000874A506820F4E06008435060704701468C
:100E90000020834A506820F4605040EAC10050604E
:100EA000704729B17E4A527A02437D4B5A7204E060
:100EB0007B4A527A82437A4B5A7270477B49D831C7
:100EC0000860704701460020754A506820F4404091
:100ED0000843506070470021714A20321170704AF7
:100EE00082F82010012802D004280AD104E0012150
:100EF0006B4A2032117005E00521694A20321170D9
:100F000000E000BF00BF704769490860704764494E
:100F1000096A0143624A11627047654944390860B1
:100F2000704730B500210022002400235C4D6D681D
:100F300005F00C0121B1042905D0082923D105E0D1
:100F40005C4D056022E05B4D05601FE0544D6D680F
:100F500005F47012524D6D6805F48034022505EBDE
:100F600092421CB9544D554305600BE04C4D6D68E1
:100F700005F400351DB1504D5543056002E04D4D5F
:100F80005543056002E04B4D056000BF00BF444D76
:100F90006D6805F0F0010909484D6B5C0568DD409E
:100FA00045603F4D6D6805F4E061090A434D6B5C97
:100FB0004568DD4085603A4D6D6805F46051C90AA9
:100FC0003E4D6B5C4568DD40C560354D6D6805F490
:100FD0004041890B3A4D6B5CC568B5FBF3F5056183
:100FE00030BD29B12E4A526902432D4B5A6104E0AB
:100FF0002B4A526982432A4B5A61704729B1284AC9
:1010000092690243264B9A6104E0254A9269824321
:10101000234B9A61704729B1214AD2690243204B80
:10102000DA6104E01E4AD26982431D4BDA617047DF
:1010300029B11B4AD2680243194BDA6004E0184A0E
:10104000D2688243164BDA60704729B1144A12699C
:101050000243134B1A6104E0114A12698243104B98
:101060001A61704712494039086070470F49C864D7
:1010700070470B49C87170470948406A40F080705A
:1010800007494862704701460020054A92680A40B5
:101090000AB1012000E000207047014988727047C2
:1010A000001002400000FFF8FFFFF6FE0000424281
:1010B0008004424200127A0000093D001400002022
:1010C0002400002010B50446FE48844208D10121C6
:1010D000C014FFF7ADFF0021E014FFF7A9FFC4E043
:1010E000B4F1804F08D101210846FFF7AEFF00217F
:1010F0000120FFF7AAFFB8E0F348844208D101219C
:101100000220FFF7A2FF00210220FFF79EFFACE0C4
:10111000EE48844208D101210420FFF796FF002108
:101120000420FFF792FFA0E0E948844208D10121A2
:101130000820FFF78AFF00210820FFF786FF94E0D0
:10114000E448844208D101211020FFF77EFF0021EE
:101150001020FFF77AFF88E0DF48844208D10121A0
:101160002020FFF772FF00212020FFF76EFF7CE0B8
:10117000DA48844208D101214014FFF759FF0021C9
:101180006014FFF755FF70E0D548844209D1012172
:10119000C804FFF74DFF00214FF40020FFF748FF80
:1011A00063E0D048844209D101210805FFF740FFE0
:1011B00000214FF48010FFF73BFF56E0CA488442FD
:1011C00009D101214805FFF733FF00214FF400103A
:1011D000FFF72EFF49E0C548844208D10121402095
:1011E000FFF733FF00214020FFF72FFF3DE0C0480D
:1011F000844208D101218020FFF727FF00218020B1
:10120000FFF723FF31E0BB48844208D1012180155C
:10121000FFF71BFF0021A015FFF717FF25E0B648D9
:10122000844209D101210804FFF702FF00214FF495
:101230008030FFF7FDFE18E0B048844209D101215B
:101240004804FFF7F5FE00214FF40030FFF7F0FEF1
:101250000BE0AB48844208D101218804FFF7E8FE87
:1012600000214FF48020FFF7E3FE10BD002202882A
:10127000944B98420ED0994B98420BD0B0F1804FCE
:1012800008D0914B984205D0904B984202D0904B99
:10129000984204D14FF68F731A404B881A438D4BF6
:1012A000984207D08C4B984204D04FF6FF431A4027
:1012B000CB881A4302808B8883850B880385814BFA
:1012C00098420BD0854B984208D08B4B984205D062
:1012D0008A4B984202D08A4B984201D10B7A0386FE
:1012E00001238382704770B5002400220023058CFF
:1012F0004FF6FE7635400584028C8388048B4FF6CA
:101300008F752C40B51E2C400D882C43751E2A402D
:101310000D892A434D882A436A4DA8420BD06F4D50
:10132000A84208D0744DA84205D0744DA84202D0FE
:10133000734DA84213D14FF6F7752A404D892A43C1
:101340004FF6FB752A408D882A434FF6FF652B40E8
:101350004FF6FF552B408D892B43CD892B4383803E
:101360000483CD888586028470BD70B50024002278
:101370000023058C4FF6EF7635400584028C838878
:10138000048B48F6FF752C404FF6FF452C400D8826
:101390004FF6FF7606EA05252C434FF6DF752A4007
:1013A0000D8906EA05152A434D8806EA05152A43E4
:1013B000444DA84202D0494DA8421DD14FF67F7539
:1013C0002A404D894FF6FF7606EA05152A434FF667
:1013D000BF752A408D8806EA05152A434FF6FF356A
:1013E0002B404FF2FF752B408D8906EA85052B4374
:1013F000CD8906EA85052B4383800483CD88058744
:10140000028470BD70B5002400220023058C4FF6C5
:10141000FF6635400584028C8388848B4FF68F7578
:101420002C404FF6FC752C400D882C434FF6FF5591
:101430002A400D894FF6FF7606EA05252A434D8896
:1014400006EA05252A431F4DA84202D0234DA84293
:101450001DD14FF2FF752A404D894FF6FF7606EAFF
:1014600005252A434FF6FF352A408D8806EA0525D3
:101470002A434EF6FF752B404DF6FF752B408D89A4
:1014800006EA05152B43CD8906EA05152B43838013
:101490008483CD888587028470BD70B500220023C7
:1014A0000024058C4EF6FF7635400584038C848835
:1014B000828B48F6FF752A404FF6FF452A400D887B
:1014C00020E00000002C0140000400400008004023
:1014D000000C0040001000400014004000340140A7
:1014E000004C0140005001400054014000180040F1
:1014F000001C00400020004000400140004401402A
:10150000004801404FF6FF7606EA05252A434DF6CE
:10151000FF752B400D8906EA05352B434D8806EAF9
:1015200005352B43FA4DA84202D0FA4DA84208D106
:101530004BF6FF752C408D894FF6FF7606EA851530
:101540002C4384808283CD88A0F84050038470BDF2
:10155000828B4FF2FF331A408283828B4FF6FF73E8
:1015600003EA01231A4382837047F0B50C461546FF
:10157000002200210026078C4EF6FF7C07EA0C07AC
:101580000784828B018C4FF6FF7707EA043640F61A
:10159000FF473A404FF6FF7707EA05273A434FF6F1
:1015A000FF7707EA03373A43D94FB8420ED0D94FF5
:1015B000B8420BD0B0F1804F08D0D74FB84205D019
:1015C000D64FB84202D0D64FB84206D14DF6FF777B
:1015D000394046F48057394305E047F6FF57394014
:1015E00044F48057394382830184F0BD828B4FF6E7
:1015F000F3731A408283828B0A4382837047F0B56B
:101600000C461546002200210026078C4FF6FF6C81
:1016100007EA0C070784828B018C4FF6FF7707EAF5
:1016200004264FF60C773A404FF6FF7707EA031788
:101630002F433A43B64FB8420ED0B64FB8420BD004
:10164000B0F1804F08D0B44FB84205D0B34FB84284
:1016500002D0B34FB84206D14FF6FF57394046F497
:101660008077394305E04FF2FF57394044F48077E3
:10167000394382830184F0BD028B4FF2FF331A405D
:101680000283028B4FF6FF7303EA01231A4302839E
:101690007047F0B50C461546002200210026078C45
:1016A0004FF6EF7C07EA0C070784028B018C4FF69C
:1016B000FF7707EA041640F6FF473A404FF6FF77F8
:1016C00007EA03373A434FF6FF7707EA05273A431D
:1016D0008F4FB8420ED08F4FB8420BD0B0F1804F31
:1016E00008D08D4FB84205D08C4FB84202D08C4FF5
:1016F000B84206D14FF6DF77394046F0100739433C
:1017000005E04FF65F77394044F010073943028314
:101710000184F0BD028B4FF6F3731A400283028BF3
:101720000A4302837047F0B50C461546002200219B
:10173000068C4FF6FE773E400684028B018C4FF6F6
:101740000C7632407E1C06EA03162E433243704E5E
:10175000B0420ED06F4EB0420BD0B0F1804F08D0E7
:101760006D4EB04205D06D4EB04202D06C4EB042CC
:1017700006D14FF6FD76314044F00106314305E0D5
:101780004FF6F576314044F001063143028301847F
:10179000F0BD70B505460C465D4885420ED05D48EB
:1017A00085420BD0B5F1804F08D05B48854205D00B
:1017B0005A48854202D05A48854200D100E000BF15
:1017C000208850B92389A28861882846FFF7ABFF9B
:1017D000E1882846FFF79EFF25E0208804280AD1EB
:1017E0002389A28861882846FFF753FFE1882846AD
:1017F000FFF742FF17E0208808280AD12389A28832
:1018000061882846FFF7FBFEE1882846FFF7EEFED9
:1018100009E02389A28861882846FFF7A6FEE188AF
:101820002846FFF795FE70BD2DE9F04105460C46B0
:1018300000260127608808B9022600E00026A0885B
:10184000012801D1022700E001272088A0B92389BF
:10185000A28861882846FFF766FFE1882846FFF7DF
:1018600059FF23893A4631462846FFF712FFE1889F
:101870002846FFF701FF13E02389A28861882846E4
:10188000FFF707FFE1882846FFF7F6FE23893A466F
:1018900031462846FFF747FFE1882846FFF73AFF21
:1018A000BDE8F0810A884B881A438B881A43CB889D
:1018B0001A430B891A434B891A438B891A43A0F8A0
:1018C000442070474FF6FF71818000210180C18064
:1018D0004180017270470021018041808180C18078
:1018E000018141818181C181704700210180418056
:1018F000012181800021C180018170470021018088
:1019000041808180C18001814181818170470000D7
:10191000002C014000340140000400400008004059
:10192000000C004021B1028842F00102028004E074
:1019300002884FF6FE731A400280704731B1B0F84A
:10194000442042F40042A0F8442005E0B0F84420CE
:10195000C2F30E02A0F8442070471AB183890B43EA
:10196000838102E083898B43838170478182704742
:1019700041EA0203A0F8483070471AB183890B434B
:10198000838102E083898B438381704701894FF60D
:10199000F8721140018170470A46002101894FF613
:1019A0008F73194011430181704730B504460D46CD
:1019B00029462046FFF7F0FF208940F007002081EC
:1019C00030BD2DE9F04104460D4616461F46602DF8
:1019D00006D13B46012231462046FFF75AFE05E07C
:1019E0003B46012231462046FFF79DFE2946204610
:1019F000FFF7D2FF208940F007002081BDE8F08189
:101A000030B50C4600210189C9B24FF6FF7505EAD1
:101A10000325154325432943018130BD2DE9F041BC
:101A200005460E4617469846002443463A46314638
:101A30002846FFF7E5FF2C894FF6F870044044F084
:101A400007044FF68F70044044F070042C81BDE809
:101A5000F081F0B504460D4616461F463B46324619
:101A600029462046FFF7CCFF208940F480402081A2
:101A7000F0BD0185828270470A46002101884FF639
:101A80008F731940114301807047F0B50C4615461D
:101A90001E460021002200230189028B038C4FF691
:101AA000F877394021434FF6FC473A4040F201179E
:101AB0003A434FF6DD773B404FF6FF7707EA0617CC
:101AC0002F433B43018102830384F0BD0A4600217A
:101AD000018B4FF68F7319401143018370470A46FB
:101AE0000021018B48F6FF7319404FF6FF7303EA9C
:101AF00002231943018370470A460021818B4FF668
:101B00008F7319401143818370470A460021818BEE
:101B100048F6FF7319404FF6FF7303EA0223194397
:101B20008183704721B1028842F08002028004E084
:101B300002884FF67F731A400280704721B1828875
:101B400042F00402828004E082884FF6FB731A4060
:101B50008280704721B1828842F00802828004E0CE
:101B600082884FF6F7731A408280704721B18288CD
:101B700042F00102828004E082884FF6FE731A4030
:101B8000828070470A460021018B4FF6F773194097
:101B90001143018370470A460021018B4FF2FF7306
:101BA00019404FF6FF7303EA02231943018370477C
:101BB0000A460021818B4FF6F77319401143818348
:101BC00070470A460021818B4FF2FF7319404FF690
:101BD000FF7303EA02231943818370470A460021F9
:101BE000018B4FF6FB7319401143018370470A467E
:101BF0000021018B4FF6FF3319404FF6FF7303EAC4
:101C000002231943018370470A460021818B4FF656
:101C1000FB7319401143818370470A460021818B71
:101C20004FF6FF3319404FF6FF7303EA02231943BF
:101C3000818370470A460021018B4FF67F7319405C
:101C40001143018370470A460021018BC1F30E0145
:101C50004FF6FF7303EA02231943018370470A46D4
:101C60000021818B4FF67F731940114381837047A8
:101C70000A460021818BC1F30E014FF6FF7303EA80
:101C800002231943818370470A460021018C4FF6D5
:101C9000FD7319401143018470470A460021018CED
:101CA0004FF6F77319401143018470470A4600212B
:101CB000018C4FF6DF7319404FF6FF7303EA0213EE
:101CC0001943018470470A460021018C4FF67F7347
:101CD00019404FF6FF7303EA02131943018470475A
:101CE0000A460021018C4FF6FF5319404FF6FF734F
:101CF00003EA02231943018470470A460021018C3C
:101D00004FF2FF7319404FF6FF7303EA02231943A2
:101D1000018470470A460021018C4DF6FF7319407B
:101D20004FF6FF7303EA023319430184704730B55D
:101D3000002301248C40A3B2048C9C430484048CB3
:101D400002FA01F5ADB22C43048430BD30B5002356
:101D500004248C40A3B2048C9C430484048C02FAB7
:101D600001F5ADB22C43048430BD70B503460020AC
:101D700000241846183001258D40ACB21D8CA543B7
:101D80001D8409B1082909D100EB6100056825F01F
:101D9000700505600568154305600EE00D1FC5F36D
:101DA0004E052844056825F4E045056005684FF6B2
:101DB000FF7606EA02263543056070BD21B1028830
:101DC00042F00202028004E002884FF6FD731A40DE
:101DD0000280704721B1028842F00402028004E0D0
:101DE00002884FF6FB731A400280704721B1828847
:101DF00042F08002828004E082884FF67F731A40AE
:101E00008280704702884FF6F7731A40028002887A
:101E10000A430280704782884FF68F731A4082808F
:101E200082880A438280704702894FF6F8731A400D
:101E3000028102890A430281704702894FF67F734B
:101E40001A40028102890A430281704781847047E7
:101E50008185704781867047018770478187704709
:101E6000A0F84010704702884FF6FF431A400280E6
:101E700002880A43028070470146888E70470146F7
:101E8000088F70470146888F70470146B1F84000BF
:101E900070470146888C70470146088D704702469E
:101EA0000020138A0B400BB1012000E00020704796
:101EB000CA430282704730B5024600200023002446
:101EC000158A05EA0103958905EA010413B10CB1ED
:101ED000012000E0002030BDCA43028270470000AC
:101EE00010B50446FB48844209D101218803FFF75D
:101EF0009FF800214FF48040FFF79AF832E0F6484F
:101F0000844209D101214804FFF79FF800214FF4D2
:101F10000030FFF79AF825E0F048844209D101210A
:101F20008804FFF792F800214FF48020FFF78DF826
:101F300018E0EB48844209D10121C804FFF785F875
:101F400000214FF40020FFF780F80BE0E5488442C1
:101F500008D101210805FFF778F800214FF480101F
:101F6000FFF773F810BD2DE9F04786B005460E4621
:101F70000024A24600BFA1460027B08900B100BFDF
:101F80002F462C8A4CF6FF700440F08804432C82C4
:101F9000AC894EF6F3100440B0883189084371894A
:101FA00008430443AC81AC8A4FF6FF400440B0893B
:101FB0000443AC8201A8FEF7B4FFC648874202D1B1
:101FC000DDF810A001E0DDF80CA0A88900F40040C5
:101FD00040B10AEBCA0000EB0A1031684900B0FBBF
:101FE000F1F807E00AEBCA0000EB0A10316889003B
:101FF000B0FBF1F86420B8FBF0F004012009642183
:1020000001FB1089A88900F4004040B1322000EBA8
:10201000C900B0FBF1F000F00700044308E03220F3
:1020200000EB09106421B0FBF1F000F00F00044355
:102030002C8106B0BDE8F0874FF4165101600021F5
:102040008180C18001810C21418100218181704703
:1020500010B502460020108A4FF2FF0318400B888B
:102060004C8823438C882343CC8823431843108215
:1020700010BD0021018041808180C180704721B165
:10208000828942F40052828104E082894DF6FF7316
:102090001A4082817047F0B50346002400260025CF
:1020A000002040F66A17B94200D100BF1846C1F3BC
:1020B000421401F01F06012707FA06F5012C01D191
:1020C0000C3004E0022C01D1103000E014301AB1C1
:1020D00007682F43076002E00768AF430760F0BD61
:1020E0001AB1838A0B43838202E0838A8B43838203
:1020F0007047028A4FF6F0731A400282028A0A433E
:102100000282704782894FF2FF731A40828182896E
:102110000A438281704721B1828942F002028281A2
:1021200004E082894FF6FD731A4082817047028A6B
:102130004FF6DF731A400282028A0A430282704716
:1021400021B1028A42F48042028204E0028A4BF604
:10215000FF731A4002827047C1F308028280704701
:1021600001468888C0F308007047818941F0010169
:1021700081817047028BD2B20283028B42EA012234
:1021800002837047028B02F47F420283028B0A4370
:102190000283704721B1828A42F02002828204E0E9
:1021A000828A4FF6DF731A408282704721B1828A99
:1021B00042F01002828204E0828A4FF6EF731A40E6
:1021C0008282704721B1828A42F00802828204E052
:1021D000828A4FF6F7731A408282704721B1828952
:1021E00042F40042828103E08289C2F30E028281BE
:1021F000704721B1828A42F40062828204E0828ABE
:102200004FF2FF731A4082827047828A4FF6FB7347
:102210001A408282828A0A438282704721B1828A6E
:1022200042F00202828204E0828A4FF6FD731A4075
:102230008282704702460020B1F5007F00D100BFC6
:1022400013880B400BB1012000E00020704701F41F
:102250000072B2F5007F00D100BFCA430280704710
:1022600070B50246002400230025002040F66A16BF
:10227000B14200D100BFC1F3421501F01F03012696
:1022800006FA03F3012D02D19689334006E0022DB0
:1022900002D1168A334001E0968A33400C1201269F
:1022A00006FA04F41688344013B10CB1012000E0A2
:1022B000002070BD10B50022002340F66A14A14230
:1022C00000D100BF0A1201249440A3B2DC43048071
:1022D00010BD0000003801400044004000480040AC
:1022E000004C00400050004010B56FF00400FEF7B5
:1022F00022F92E4800682E49B0FBF1F02D490870F4
:102300000846007800EB4001C1EBC0104FF6FF71AA
:1023100001EAC0002849088010BD0146254A12780C
:102320004A434FF0E0235A6100229A611A4612692B
:1023300042F001021A6100BF4FF0E022106900F084
:1023400001021AB100F48032002AF5D04FF0E022E9
:10235000126922F001024FF0E0231A6100229A6113
:1023600070470146144A12884A434FF0E0235A61ED
:1023700000229A611A46126942F001021A6100BFF6
:102380004FF0E022106900F001021AB100F480322F
:10239000002AF5D04FF0E022126922F001024FF03E
:1023A000E0231A6100229A617047000000000020BB
:1023B00000127A00280000202A00002010B54FF4F7
:1023C000A060FEF769F810BD014600BF704700BF6E
:1023D0004F4A128802F04002002AF9D0C2B24C4B98
:1023E0001B1D1A8000BF4B4A128802F04002002ACF
:1023F000F9D0C2B2474B1B1D1A80704710B586B08A
:102400000446012144F20400FEF7F8FD4FF4007089
:10241000ADF8140003208DF8160018208DF8170071
:1024200005A93D48FEF72EFB4FF48060ADF814007F
:1024300004208DF8170005A93748FEF723FB252057
:102440008DF8000003208DF801008DF802000120B6
:102450008DF803006846FEF724F801940020ADF8DB
:102460000800ADF80A00ADF80C00ADF810000C2023
:10247000ADF80E0001A92648FFF775FD012240F2D4
:1024800025512348FFF707FE01212148FFF7F7FDFB
:1024900006B010BD10B540F225511D48FFF7E0FE13
:1024A00010B31B48FFF75CFEC4B21C48008800F460
:1024B0000040C8B91948008800F4804060B10A2C77
:1024C00003D000201549088020E01448008840F41B
:1024D00000401249088019E00D2C06D10F480088F1
:1024E00040F480400D49088010E00C480088C0F39B
:1024F0000D000B490C5409480088401C074908800E
:1025000008460088C72801DD0020088010BD0000B3
:102510000038014000480040000801403000002021
:10252000D800002030B589B005460C460121084688
:10253000FEF764FD0121C802FEF760FD0121402085
:10254000FEF75CFD0121F948FEF76DFB4FF4D44026
:10255000ADF8200003208DF8220018208DF823000C
:1025600008A9F348FEF78EFAADF81850ADF81440FC
:102570000020ADF81600ADF81A008DF81C0005A972
:10258000EC48FEF773FE7020ADF804000120ADF8B2
:1025900006000020ADF808000220ADF80C00002075
:1025A000ADF80E004FF48070ADF810000020ADF8CB
:1025B000120001A9DF48FEF796FE01A9DD48FEF7EB
:1025C000D4FE01A9DB48FEF71DFF01A9D948FEF79B
:1025D00064FF0020D74934310880091D0880091D97
:1025E0000880091D08800121D248FFF79BF90121CD
:1025F000D048FFF7A3F909B030BD30B589B0044623
:102600000D4601214803FEF7F9FC01211120FEF7D8
:10261000F5FC4FF47070ADF8200003208DF8220017
:1026200018208DF8230008A9C348FEF72BFAADF84F
:102630001450ADF818400020ADF81600ADF81A009F
:102640008DF81C0005A9BD48FEF710FE7020ADF8FE
:1026500004000120ADF806000020ADF808000220BB
:10266000ADF80C000020ADF80E004FF48070ADF80E
:1026700010000020ADF8120001A9B048FEF733FEAB
:1026800001A9AE48FEF771FE01A9AC48FEF7BAFEFB
:1026900001A9AA48FEF701FF0020A84934310880AB
:1026A000091D0880091D0880091D08800121A34813
:1026B000FFF738F90121A148FFF740F909B030BD13
:1026C0000EB501210846FEF7A6FC0920ADF804006E
:1026D00041F61F40ADF800000020ADF80600ADF84F
:1026E000020069464FF08040FEF7C0FD012211460E
:1026F0009007FFF732F901218807FFF713F90EBDA4
:1027000000B587B001210846FEF778FC01210220C0
:10271000FEF781FC01210420FEF770FCC020ADF81B
:10272000180048208DF81B0003208DF81A0006A918
:102730008348FEF7A7F9012240218148FEF753FAAA
:10274000012280217E48FEF74EFA0A20ADF81000E3
:102750000020ADF80C00ADF81200ADF80E0003A992
:102760007848FEF783FD0A231A4603217548FFF7D0
:102770008CF96846FFF7B9F80620ADF808006946FD
:102780007048FFF706F801216E48FFF791FB012220
:1027900011466C48FFF7E1F800206A4924310880AF
:1027A00001216848FFF7BEF807B000BD00B587B04B
:1027B00001210846FEF722FC01210420FEF72BFC34
:1027C00001210820FEF71AFCC020ADF818004820AF
:1027D0008DF81B0003208DF81A0006A95A48FEF751
:1027E00051F9012240215848FEF7FDF901228021CC
:1027F0005548FEF7F8F90A20ADF810000020ADF8B2
:102800000C00ADF81200ADF80E0003A94F48FEF71A
:102810002DFD0A231A4603214C48FFF736F9684676
:10282000FFF763F80620ADF8080069464748FEF751
:10283000B0FF01214548FFF73BFB01221146434809
:10284000FFF78BF8002041492431088001213F48DF
:10285000FFF768F807B000BD00B587B00121084652
:10286000FEF7CCFB01210820FEF7D5FB0121042057
:10287000FEF7C4FB0320ADF8180048208DF81B00BC
:1028800003208DF81A0006A92D48FEF7FBF8012257
:1028900011462B48FEF7A7F9012202212848FEF72E
:1028A000A2F90A20ADF810000020ADF80C00ADF838
:1028B0001200ADF80E0003A92548FEF7D7FC0A2345
:1028C0001A4603212248FFF7E0F86846FFF70DF8A3
:1028D0000620ADF8080069461D48FEF75AFF0121A1
:1028E0001B48FFF7E5FA012211461948FFF735F8B2
:1028F000002017492431088001211548FFF712F8FC
:1029000007B000BD10B5002140F2CF70FFF70AFEFE
:10291000FFF7D6FEFFF7F4FEFFF748FFFFF79CFF37
:10292000002140F2CF70FFF768FE10BDC000160016
:1029300000180140002C014000100140003401400B
:102940000008014000040040000C01400008004065
:10295000000C004008B51C208DF8000002208DF806
:10296000010000208DF8020001208DF80300684668
:10297000FDF797FD1D208DF8000000208DF8010067
:1029800001208DF802008DF803006846FDF789FDEF
:102990001E208DF8000000208DF8010002208DF827
:1029A000020001208DF803006846FDF77AFD322011
:1029B0008DF8000000208DF8010003208DF8020042
:1029C00001208DF803006846FDF76BFD37208DF878
:1029D000000002208DF8010000208DF80200012087
:1029E0008DF803006846FDF75CFD08BD10B50121B8
:1029F0008807FFF760FA60B101218807FFF76CFADA
:102A00000748D0E90020521C40F100000449C1E908
:102A1000002010BD02480CC810461946704700003F
:102A20003800002010B50021C74A116051604120D4
:102A300000F096FCC449886008468068C8600020A1
:102A40008861086148610021C04A116051604220DC
:102A500000F086FCBD49886008468068C860002098
:102A60008861086148610021B94A116051604320C2
:102A700000F076FCB649886008468068C86000208F
:102A8000886108614861B349087010BD704770B52E
:102A900006460C461546B0480660B0480460B0488B
:102AA0000560304601F099FBA74A03C2204601F0B9
:102AB00094FBA64A03C2284601F08FFBA44A03C236
:102AC00070BD2DE9FF4704460D464FF0000A002671
:102AD000B146B5F57A7F01DD4FF47A75412000F0FB
:102AE0003FFCA060D4E90201A0EB0109484601F0D7
:102AF00074FBCDE90001D4E900733A4601F0D8FB3C
:102B0000CDE9020101F03AFB82469648006800FBDD
:102B10000AF02169A9EB0101934A126802FB110036
:102B2000616908449149096890FBF1F6A068E0608A
:102B3000A0690644AE4201DB2E460AE068428642A6
:102B400001DC6E4205E08A496069096801FB0A0000
:102B50006061A661C4F81090BDE8FF872DE9FF47CA
:102B600004460D464FF0000A0026B146B5F57A7FBF
:102B700001DD4FF47A75422000F0F2FBA060D4E949
:102B80000201A0EB0109484601F027FBCDE9000155
:102B9000D4E900733A4601F08BFBCDE9020101F064
:102BA000EDFA82467348006800FB0AF02169A9EB40
:102BB0000101714A126802FB1100616908446F4902
:102BC000096890FBF1F6A068E060A0690644AE4297
:102BD00001DB2E460AE06842864201DC6E4205E0D7
:102BE00067496069096801FB0A006061A661C4F871
:102BF0001090BDE8FF872DE9FF4704460D464FF0D2
:102C0000000A0026B146B5F57A7F01DD4FF47A75EA
:102C1000432000F0A5FBA060D4E90201A0EB01096C
:102C2000484601F0DAFACDE90001D4E900733A46EA
:102C300001F03EFBCDE9020101F0A0FA82465148C5
:102C4000006800FB0AF02169A9EB01014E4A1268F5
:102C500002FB1100616908444C49096890FBF1F6D8
:102C6000A068E060A0690644AE4201DB2E460AE09F
:102C70006842864201DC6E4205E0454960690968A8
:102C800001FB0A006061A661C4F81090BDE8FF87EF
:102C900070B53048007858B92B48006928B92B48DE
:102CA000006910B92A48006908B1FFF7BBFE70BD82
:102CB00038490868002801DB014600E041420C4623
:102CC00035490868002801DB014600E041420D4615
:102CD00032490868002801DB014600E041420E4607
:102CE00021461948FFF7EDFE29461848FFF736FF41
:102CF00031461748FFF77FFF154B9A69134B9969C7
:102D0000114B986900F0ACFA00BFD0E701460020F3
:102D1000412902D10C4A106906E0422902D10B4A2E
:102D2000106901E00A4A10697047014600204129F4
:102D300002D1054A906906E0422902D1034A90690E
:102D400001E0034A90697047A0010020C001002003
:102D5000E00100207C000020400000204400002012
:102D6000480000204C0000205000002058000020A7
:102D7000540000205C00002060000020680000205B
:102D8000640000206C00002070000020780000200B
:102D900074000020AC000020B0000020B40000202F
:102DA00008B501214020FEF729F91820ADF80000F0
:102DB00048208DF8030069461E48FDF763FE08BDF4
:102DC00008B501212020FEF719F94FF44040ADF875
:102DD000000010208DF8030003208DF802006946E2
:102DE0001548FDF74FFE4FF480411348FDF7F7FEFD
:102DF0004FF400411048FDF7F2FE08BD08B501216F
:102E00000802FEF7FBF84FF6FF70ADF80000102047
:102E10008DF8030003208DF8020069460748FDF78E
:102E200031FE08BD10B5FFF7CBFFFFF7B9FFFFF785
:102E3000E5FF10BD00180140000C014000200140DA
:102E400010B586B0044601210920FEF7D7F801210C
:102E50008804FEF7E0F84FF48060ADF8140003201A
:102E60008DF8160018208DF8170005A9DC48FDF72D
:102E700009FE4FF40060ADF8140004208DF817002F
:102E800005A9D748FDF7FEFD27208DF80000032097
:102E90008DF801008DF8020001208DF803006846CE
:102EA000FDF7FFFA01940020ADF80800ADF80A0024
:102EB000ADF80C00ADF810000C20ADF80E0001A923
:102EC000C848FFF750F8012240F22551C548FFF7E6
:102ED000E2F80121C348FFF7D2F806B010BD2DE992
:102EE000F0410A21002000F028FE04460A210120BA
:102EF00000F023FE05460A21022000F01EFE0646D1
:102F00000A21032000F019FE07462146B6A000F072
:102F100031FE2946B4A000F02DFE3146B2A000F0EB
:102F200029FE3946B1A000F025FEBDE8F08110B5BC
:102F3000B0480078B0490870084600786D2824D061
:102F400008DCA0F16100052812D2DFE800F0120CC5
:102F500076184F00722862D0752868D076287CD009
:102F6000772805D19EE04FF46141A4A000F002FE55
:102F70009BE0FFF7B4FFA3A000F0FCFD95E04FF449
:102F800061419EA000F0F6FD8FE00D209E49086093
:102F90009E48006870B99E48006858B99D4800680E
:102FA00040B900221146104600F05AF900209A4913
:102FB000087002E001209849087096480268944819
:102FC000016892480068FFF762FD944802689448DF
:102FD000016894A000F0CEFD904801689048006818
:102FE00000F076FB91A000F0C5FD5EE0412000F00E
:102FF000B7F9044621468FA000F0BCFD422000F046
:10300000AFF9044621468BA000F0B4FD432000F048
:10301000A7F90446214689A000F0ACFD45E000F088
:1030200097F9FFF7FFFC81A000F0A4FD3DE0FFF75A
:103030002DFD7EA000F09EFD37E07CA000F09AFD03
:1030400077480068012811D17E49484200F040FBD2
:103050004FF47A70FFF785F900E01DE04FF47A70C5
:10306000FFF77FF90021084600F032FB6C4800684A
:10307000022810D140F24C41484200F029FB4FF4A5
:103080007A70FFF76EF94FF47A70FFF76AF9002152
:10309000084600F01DFB08E000216148006800F0D0
:1030A0006DF902E000F0B8F900BF00BF10BD10B527
:1030B00001460020554C2060554C2060554C206046
:1030C00008784C4C207048788C7840EA0422C87804
:1030D0000C7940EA0423A2F5FA60514C2060A3F574
:1030E000FA604E4C206010BD2DE9F041002400250F
:1030F00000260027A0460120434908602AE03948FD
:10310000FFF72EF850490870084600780D280BD1BB
:1031100000204E49086061204D4908704D48FFF776
:10312000C6FFFFF704FF1CE04948007862280AD177
:10313000454800784749454A126888544348006822
:10314000401C4249086040480078552802D162205E
:103150003F49087040F225512248FFF781F80028C6
:10316000CDD100BFBDE8F08170B506460C461546CE
:1031700000202649086026490860264908600A227E
:103180000021304600F09AFD204908600A22002103
:10319000204600F093FD1E4908600A2200212846BF
:1031A00000F08CFD1B490860184800681C49086045
:1031B00017480068194908601648006826490860E1
:1031C00070BD00200C490870104908601049086063
:1031D00010490860214908601C49086070470000D8
:1031E000000C0140004800402564200025640D0AC1
:1031F000000000009E0000209000002025640A0DC1
:10320000000000006F6B000080000020A000002084
:10321000A4000020A80000207C000020B0000020B6
:10322000AC000020256C643A256C64006F6B0A0DBD
:1032300000000000256C642000000000256C640A7A
:103240000D000000B4FBFFFF9D000020980000204F
:103250009C00002014020020B400002094000020F4
:1032600010B5834B1860834B1960834B1A6000289C
:1032700007DA0023814C23804342804C0C342380A6
:1032800005E07E4C208000237C4C0C3423800029F8
:1032900006DA00237A4C23804B42241D238004E06D
:1032A000774C21800023241D2380002A07DA002385
:1032B000734C083423805342241D238005E0704C56
:1032C000083422800023241D238010BD10B56D48D2
:1032D000008800F0100028B16B480068401E6A4961
:1032E000086004E068480068401C674908600121E4
:1032F0006448FEF7F1FD10BD10B56448008800F089
:10330000100028B162480068401E6149086004E06E
:103310005F480068401C5E49086001215B48FEF779
:10332000DBFD10BD10B55B48008800F0100028B12F
:1033300059480068401E5849086004E05648006833
:10334000401C5549086001215248FEF7C5FD10BDDB
:1033500000204D4908604E4908604F490860704799
:103360000146412902D1484800687047422902D1EC
:1033700047480068F9E748480068F6E72DE9F04754
:10338000044688464FF4FA7600274FF00009B4F55A
:103390007A7F00DD740041480068844205DB3F48C5
:1033A0000068251A4FF0010804E04FF000083B4880
:1033B0000068051B3A48C0F8BC81294639A000F0D6
:1033C000D9FB2F461DE04FF00A0916E001203749CE
:1033D00008603046FEF7A1FF00203149C1F8B8016E
:1033E0003046FEF79AFF40F2DC50874203DAB6F52A
:1033F000167F00DAB61CA9F10109B9F1000FE5DC6E
:103400007F1E002FDFDC25480460016828A000F043
:10341000B1FB0120BDE8F08770B54FF4FA740025C8
:10342000002600202149091D08601DE001201F49D8
:1034300008602046FEF771FF00201949C1F8B80165
:103440002046FEF76AFF10211D48FDF7AEFB58B974
:103450003220FEF786FF10211948FDF7A6FB18B9A8
:1034600000200E49086000E0E0E700BF012070BDC9
:10347000CC000020D0000020D4000020342C0140DB
:103480003434014000040040C00000200008004027
:10349000C4000020000C0040C8000020BC00002038
:1034A000008022426E756D7A3A256400B88122420E
:1034B000737465706D6F746F724469733A2564003C
:1034C000001801400246A2F12800FB4B188031B9D8
:1034D0000020FA4B18600120F94BC3F88401012940
:1034E00006D10120F54B18600020F54BC3F884018C
:1034F000022905D10120F14B1860F14BC3F884017A
:10350000A2F11E00EC4B1B1D188039B90020EB4BBB
:10351000083318600120EA4BC3F88C01012907D158
:103520000120E64B083318600020E54BC3F88C01FE
:10353000022906D10120E14B08331860E04BC3F8A3
:103540008C01A2F15000DC4B0833188039B90020FF
:10355000DA4B103318600120D94BC3F894010129CC
:1035600007D10120D54B103318600020D44BC3F88D
:103570009401022906D10120D04B10331860D04BA2
:10358000C3F8940102F13200CB4B0C33188039B9E7
:103590000020CA4B1C3318600120C94BC3F89801A6
:1035A000012907D10120C54B1C3318600020C44BF2
:1035B000C3F89801022906D10120C04B1C331860C2
:1035C000BF4BC3F89801A2F1BE00BE4B188039B9B9
:1035D0000020BA4B203318600120B94BC3F8A40176
:1035E000012907D10120B54B203318600020B44BCE
:1035F000C3F8A401022906D10120B04B2033186082
:10360000AF4BC3F8A401A2F19600AE4B1B1D18806E
:1036100039B90020A94B283318600120A84BC3F802
:10362000AC01012907D10120A44B283318600020E8
:10363000A34BC3F8AC01022906D101209F4B2833CC
:1036400018609F4BC3F8AC01A2F58C709D4B0833FA
:10365000188039B90020994B303318600120984BFD
:10366000C3F8B401012907D10120944B303318600D
:103670000020934BC3F8B401022906D101208F4BDF
:10368000303318608E4BC3F8B401A2F146008D4B65
:103690000C33188039B90020884B3833186001206A
:1036A000874BC3F8BC01012907D10120834B383374
:1036B00018600020824BC3F8BC01022906D101200A
:1036C0007E4B383318607E4BC3F8BC010120704735
:1036D00070B502460B4601210AB9002200231446A8
:1036E0001D46002A02DA0021544200E0012131B9CE
:1036F0000020724E30600120714EC6F8840101290D
:1037000006D101206D4E306000206D4EC6F8840158
:10371000022905D10120694E3060694EC6F8840146
:1037200004F13200674E3080002B02DA00215D4246
:1037300000E0012139B90020604E083630600120D8
:103740005F4EC6F88C01012907D101205B4E083677
:10375000306000205A4EC6F88C01022906D10120A3
:10376000564E08363060564EC6F88C01554E361D02
:103770003580002A02DA0021544200E0012139B9E3
:1037800000204E4E1036306001204D4EC6F8940198
:10379000012907D10120494E103630600020484EE3
:1037A000C6F89401022906D10120444E103630603B
:1037B000434EC6F89401434E08363480002B02DA9B
:1037C00000215D4200E0012139B900203B4E1C364A
:1037D000306001203A4EC6F89801012907D1012036
:1037E000364E1C3630600020354EC6F8980102294E
:1037F00006D10120314E1C363060314EC6F898019A
:10380000304E0C363580002A02DA0021544200E0A6
:10381000012139B90020294E203630600120284E80
:10382000C6F8A401012907D10120244E20363060BA
:103830000020234EC6F8A401022906D101201F4E04
:10384000203630601E4EC6F8A4011B4E3480002B7B
:1038500002DA00215D4200E0012139B90020174E53
:10386000283630600120164EC6F8AC01012907D178
:103870000120124E283630600020114EC6F8AC01EF
:10388000022906D101200D4E283630600C4EC6F8B4
:10389000AC01094E0C363580012070BD70B5024672
:1038A0000B4601210AB90022002314461D46002AB6
:1038B0000ADA0021544208E0342C014080012442FD
:1038C0000000244234340140012131B900206A4E05
:1038D00030600120694EC6F88401012906D101201B
:1038E000654E30600020654EC6F88401022905D17E
:1038F0000120614E3060614EC6F8840104F132004F
:103900005F4E3080002B02DA00215D4200E0012191
:1039100039B90020584E083630600120574EC6F89D
:103920008C01012907D10120534E08363060002058
:10393000524EC6F88C01022906D101204E4E08369F
:1039400030604E4EC6F88C014D4E361D3580002A33
:1039500002DA0021544200E0012139B90020464E2C
:10396000103630600120454EC6F89401012907D178
:103970000120414E103630600020404EC6F89401C0
:10398000022906D101203C4E103630603B4EC6F86D
:1039900094013B4E08363480002B02DA00215D4250
:1039A00000E0012139B90020334E1C36306001207F
:1039B000324EC6F89801012907D101202E4E1C363F
:1039C000306000202D4EC6F89801022906D1012052
:1039D000294E1C363060294EC6F89801284E0C3608
:1039E0003580002A02DA0021544200E0012139B971
:1039F0000020214E203630600120204EC6F8A40160
:103A0000012907D101201C4E2036306000201B4EBA
:103A1000C6F8A401022906D10120174E20363060D5
:103A2000164EC6F8A401174E3480002B02DA00218E
:103A30005D4200E0012139B900200F4E2836306088
:103A400001200E4EC6F8AC01012907D101200A4E13
:103A5000283630600020094EC6F8AC01022906D194
:103A60000120054E28363060044EC6F8AC01054EE4
:103A70000C363580012070BD8001244200002442B4
:103A800034340140342C014000B587B001214FF49B
:103A90000170FDF7B3FA4FF40040FDF713FA0F2061
:103AA000ADF8040000208DF8070001A92E48FCF7AE
:103AB000E9FF2E48FCF75EFD002002908DF80C0017
:103AC0008DF80D004FF46020049000200590012037
:103AD0008DF8180002A92548FCF773FD0121234841
:103AE000FCF79BFD2148FCF7BAFD00BF1F48FCF71F
:103AF000BBFD0028FAD11D48FCF7C0FD00BF1B48E4
:103B0000FCF7C1FD0028FAD107B000BD10B504468E
:103B10000723012221461548FCF7EBFD012113483C
:103B2000FCF7BBFD00BF02211048FCF727FF00286F
:103B3000F9D00E48FCF744FE10BD2DE9F0410746D0
:103B40000C460025002608E03846FFF7DFFF054455
:103B50000520FEF706FC701CC6B2A642F4DBB5FBDE
:103B6000F4F080B2BDE8F08100080140002401407B
:103B7000704700000FB4044910B503AA029800F082
:103B80003FF910BC5DF814FB2C0000202DE9F0413A
:103B90000646002410687529314616A510D0AFF3EB
:103BA0000080002802DA404213A507E031688A0746
:103BB00001D512A502E0490704D511A5012401E0B1
:103BC000AFF3008000210A2206F1240709E0B0FBD0
:103BD000F2FCB0FBF2F302FB1C00303078541846C4
:103BE000491C0028F3D123462A463046BDE8F0415F
:103BF00000F0ACB8000000002D0000002B00000019
:103C0000200000002DE9F0410F4605460020286203
:103C10002846E968884770B3252805D0D5E90121F1
:103C20009047286A401CF2E7E96828460026884742
:103C30006C2804460AD0682C08D04C2C35D06A2C4D
:103C400031D0742C31D07A2C2FD016E0E96806469A
:103C500028468847B042044608D16C2E23D04FF442
:103C600080662846E9688847044606E06C2E03D043
:103C70004FF4807601E01EE04026E4B1A4F141005B
:103C8000192802D8203446F400663A4621462846D0
:103C90002E60FCF787FA60B1012808D0FF1D27F0DD
:103CA00007070837B4E78026DBE70026D9E73F1D82
:103CB000AEE72046B2E7286ABDE8F0812DE9F0477B
:103CC00091460F4680460446002614F8015B2DB14C
:103CD00000F030F80068405DC007F6D12B2D02D00F
:103CE0002D2D18D0641E4A463946204600F09AF819
:103CF00027B13968A14201D1C7F800804FF0020412
:103D000071050BD54042002803DD00F01BF804606C
:103D1000A007BDE8F08746F48066E4E70028F8DAFB
:103D200000F010F804606FF00040F2E77047704751
:103D30007047704710B500F0C9F8001D10BD00BFF6
:103D4000C102000000487047BC0300202DE9F04785
:103D50000D4699469246044600F1240801688806FB
:103D600004D5E06921F01001216000E00120A842A3
:103D700001DD471B00E00027A1697A1902EB090069
:103D8000081AA0612078C00602D42046AFF3008054
:103D9000002608E0D4E901211AF806009047206ABD
:103DA000401C761C20624E45F4DB2078C0060AD504
:103DB0002046AFF3008006E0D4E90121302090478F
:103DC000206A401C2062381EA7F10107F4DC07E0DE
:103DD000D4E9012118F805009047206A401C2062B0
:103DE000281EA5F10105F3DC2046AFF30080207802
:103DF000000602D50220BDE8F0870120FBE70000A5
:103E0000074B70B50D467B4400F069F80446284620
:103E100000F086F810B14FF0FF3070BD204670BD45
:103E2000C5E5FFFF2DE9F05F824615468B4600276A
:103E30000AF10104B9460078302801D09DB113E0A1
:103E400014F8010B0127782803D0582801D045B178
:103E50000AE00DB1102D07D1002714F8010B102531
:103E600002E0082500E00A250026B0460EE005FB2A
:103E7000080005FB06F101271FFA80F801EB104648
:103E8000B6F5803F00D3B94614F8010B294600F07F
:103E900039F80028EBDABBF1000F05D00FB1641E32
:103EA00000E05446CBF80040B9F1000F06D0FFF710
:103EB00049FF02210160C81EBDE8F09F48EA0640A4
:103EC000FAE7000000487047BC0300200048704734
:103ED000DC03002001694A1C02610878704700B5C4
:103EE0008FB0CDE901310021059105497944CDE933
:103EF000031011466846FFF785FE0FB000BD0000B5
:103F0000E5FFFFFF3A2800D2303820F02002412A96
:103F100001D3A2F13700884201D34FF0FF30704740
:103F2000007B00F0800070477546FFF7CBFFAE4680
:103F300005006946534620F00700854618B020B5B5
:103F4000FCF798FABDE820404FF000064FF000075C
:103F50004FF000084FF0000B21F00701AC46ACE831
:103F6000C009ACE8C009ACE8C009ACE8C0098D469E
:103F700070470446AFF300802046FCF72EF900009E
:103F80004FF0013C50F8042B51F8043B9A4221D1E8
:103F9000A2EB0C03934313EACC1317D150F8042B74
:103FA00051F8043B9A4215D1A2EB0C03934313EA58
:103FB000CC130BD150F8042B51F8043B9A4209D191
:103FC000A2EB0C03934313EACC13DBD04FF00000B9
:103FD000704700BFD01A01BAB1FA81F101F018019F
:103FE00022FA01F0CB40C1F12001DBB2C0B2C01A0D
:103FF0002CFA01F3D11A914311EAC311E6D17047AB
:1040000010B500290AD00878002807D00548784460
:10401000FFF7B6FF002801D0002010BD0248784409
:1040200010BD0000AE040000A604000010B591EA27
:10403000030F48BF83F0004300F14E81841A71EBF7
:10404000030C05D2121943EB0C03001B61EB0C01AE
:10405000DFF824E14FEA1154A4EB135C1EEA430F8E
:1040600018BF9EEA445F73D023EA0E03DCF1200EF2
:1040700021EA045143F4801332D322FA0CFE10EBF0
:104080000E0023FA0CFE41EB0E01CCF1200E03FAD8
:104090000EFE10EB0E0051F10001B1F5801FCCF1C6
:1040A000200E32D201EB045112FA0EF2BDE810409C
:1040B00058BF7047401C38BF5FEA420218BF7047C4
:1040C000002814BF20F0010041F100014FEA410334
:1040D00013F5001F38BF7047A1F1C04100F0E2B8EE
:1040E000012A43EB0302ACF1200CDCF11F0E32BFBE
:1040F0004FF0000E23FA0CF310EB030041EB0451D8
:10410000B4EB115FD0D0A1EB045101F58011490847
:104110005FEA300001EB04510ED350F1000038BFCC
:1041200012FA0EFE08D1BDE81040C9E7401C38BFA6
:104130005FEA4202CAD1C3E7BDE810404FEA41033B
:1041400013F5001F38BF7047A1F1C04100F0AAB8B5
:104150009EEA445F08D011EA5E0FBDE8104004BF3C
:1041600001F0004100207047BDE8104070B500F03C
:104170004BF800BF64FBBE3E0000E0FF4FEA410386
:104180004FEA5353A3F58063D3F11E03C8BFD3F1A5
:10419000210C0CDD4FF0004242EAC12242EA5052AB
:1041A00032FA03FC8CEAE17CACEBE1707047102B37
:1041B000C4BF0020704703F5787CBCF1FF3F04D0FA
:1041C0006FF0004282EA2100704770B500F01CF8E1
:1041D0004992248000207047F2E710F0004248BF67
:1041E0004042B0FA80F310FA03F10AD0C3F11D0384
:1041F00003F580634FEA415002EB035202EBD121F9
:1042000070474FF0000070470EF1020E2EF0030EC3
:104210005EF8046B364205D4012A43EB030515F51D
:10422000001F12D8012841EB010C1CF5001F0CD80F
:104230000ED14FEAD17C15F5001F0CEB4C0C0CF1A4
:10424000020C08BF4CEBD37C04E04FF0080C01E0FB
:104250004FEAD37C0CEB4C0526FA05F606F0070670
:10426000B6F1040C06D20EEB860CBDE870404CF0A3
:10427000010C6047DFE80CF0090B02024FF000412F
:104280004FF00000A1F5002170BD1946104601282D
:1042900051EB010418BFD4F5001484BF002001F0D5
:1042A000004170BD0808A0F500114FEA31017047C8
:1042B00091EA030F10B581F000413FF5BFAE83F0E6
:1042C000004300F009B8000010B591EA030F48BFA1
:1042D00083F000433FF5B2AE841A71EB030C07D2B2
:1042E00012198CF0004C43EB0C03001B61EB0C012A
:1042F000DFF8A4E14FEA1154A4EB135C1EEA430F6C
:1043000018BF9EEA445F00F0B08023EA6E03524279
:1043100021EA0451C3EB6E0338BF5B1EDCF1200EB3
:1043200025D322FA0CFE10EB0E0043FA0CFE41EBF3
:104330000E01CCF1200E03FA0EFE10EB0E0051F12F
:104340000001CCF1200E29D412FA0EF201EB045137
:10435000BDE8104058BF7047401C1CBFB2F1004F71
:10436000704700280CBF491C20F00100704712EB79
:10437000020E43EB030218BF4FF0010E4EEA420259
:10438000ACF1200CDCF11E0E54D943FA0CFE10EBFC
:104390000E0051F1FF31CCF11E0ED5D50EF1010EFC
:1043A00012FA0EFE404141EB010101EB445C5FEA71
:1043B0005C5C10D910EBDE7001EB045138BFBEF12C
:1043C000004FBDE8104018BF704700280CBF491CC3
:1043D00020F00100704730D24FEAD42C11F50011C3
:1043E00024F400641BD0B1FA81F20B3AA41AA41E83
:1043F000D2F12003914030FA03F31943904001EBCE
:10440000CC71002C01EB0451BDE81040A8BF7047EF
:1044100001F1C0414FF0000001F000417047B0FAD7
:1044200080F310FA03F100D110BDE41A173C4805DF
:10443000C90AE4E701EB045110BD491001EB045136
:10444000BDE810404FEA300002E04FF00001704735
:104450004A0008BF0042F8D0B2F5001F28BF7047DD
:1044600001F000414FF0000070479EEA445F07D022
:1044700011EA5E0FBDE8104004BF00210020704724
:10448000BDE8104070B5FFF7BFFE00BF40DFF63E4D
:1044900083F00041104670470000E0FFCC45000863
:1044A00000000020D80000006C010008A4460008AD
:1044B000D800002048090000880100081001000011
:1044C00043000000F8FFFFFF0040404040404040F4
:1044D00040404141414141404040404040404040D7
:1044E000404040404040404040050202020202027B
:1044F00002020202020202020220202020202020CA
:1045000020202002020202020202909090909090DD
:10451000101010101010101010101010101010109B
:10452000101010100202020202028888888888880F
:1045300008080808080808080808080808080808FB
:104540000808080802020202400000000000000003
:10455000000000000000000000000000000000005B
:10456000000000000000000000000000000000004B
:10457000000000000000000000000000000000003B
:10458000000000000000000000000000000000002B
:10459000000000000000000000000000000000001B
:1045A000000000000000000000000000000000000B
:1045B00000000000000000000000000000000000FB
:1045C00000000000000000000000000000A24A04FB
:1045D00000000000000000000102030406070809B3
:1045E0000000000001020304010203040607080999
:1045F00002040608000000000000000000000000A7
:1046000000000000000000000000000000000000AA
:104610000000000000000000050000000F00000086
:104620000000000032000000050000000F00000044
:104630000000000032000000050000000F00000034
:104640000000000032000000000000000000000038
:10465000000000000000000000000000000000005A
:1046600000000000000000006100000000000000E9
:10467000000000000000000000000000000000003A
:10468000000000000000000000000000000000002A
:10469000000000000000000000000000000000001A
:0446A0000000000016
:0400000508000131BD
:00000001FF
